{
  "contractName": "TodoList",
  "abi": [
    {
      "constant": true,
      "inputs": [
        {
          "name": "",
          "type": "uint256"
        }
      ],
      "name": "tasks",
      "outputs": [
        {
          "name": "id",
          "type": "uint256"
        },
        {
          "name": "encryptedHash",
          "type": "string"
        },
        {
          "name": "homeBank",
          "type": "string"
        },
        {
          "name": "profileName",
          "type": "string"
        }
      ],
      "payable": false,
      "stateMutability": "view",
      "type": "function",
      "signature": "0x8d977672"
    },
    {
      "constant": true,
      "inputs": [],
      "name": "taskCount",
      "outputs": [
        {
          "name": "",
          "type": "uint256"
        }
      ],
      "payable": false,
      "stateMutability": "view",
      "type": "function",
      "signature": "0xb6cb58a5"
    },
    {
      "anonymous": false,
      "inputs": [
        {
          "indexed": false,
          "name": "id",
          "type": "uint256"
        },
        {
          "indexed": false,
          "name": "encryptedHash",
          "type": "string"
        },
        {
          "indexed": false,
          "name": "homeBank",
          "type": "string"
        },
        {
          "indexed": false,
          "name": "profileName",
          "type": "string"
        }
      ],
      "name": "TaskCreated",
      "type": "event",
      "signature": "0x4a65ee4133f8e1c309b8f7634963d0a348a92f4152791a79d79538672f0f4eb9"
    },
    {
      "constant": false,
      "inputs": [
        {
          "name": "_encryptedHash",
          "type": "string"
        },
        {
          "name": "_homeBank",
          "type": "string"
        },
        {
          "name": "_profileName",
          "type": "string"
        }
      ],
      "name": "createTask",
      "outputs": [],
      "payable": false,
      "stateMutability": "nonpayable",
      "type": "function",
      "signature": "0xd2344f0a"
    }
  ],
  "bytecode": "0x60806040526000805534801561001457600080fd5b50610855806100246000396000f3fe6080604052600436106100565763ffffffff7c01000000000000000000000000000000000000000000000000000000006000350416638d977672811461005b578063b6cb58a5146101d0578063d2344f0a146101f7575b600080fd5b34801561006757600080fd5b506100856004803603602081101561007e57600080fd5b50356103ba565b60405180858152602001806020018060200180602001848103845287818151815260200191508051906020019080838360005b838110156100d05781810151838201526020016100b8565b50505050905090810190601f1680156100fd5780820380516001836020036101000a031916815260200191505b50848103835286518152865160209182019188019080838360005b83811015610130578181015183820152602001610118565b50505050905090810190601f16801561015d5780820380516001836020036101000a031916815260200191505b50848103825285518152855160209182019187019080838360005b83811015610190578181015183820152602001610178565b50505050905090810190601f1680156101bd5780820380516001836020036101000a031916815260200191505b5097505050505050505060405180910390f35b3480156101dc57600080fd5b506101e5610582565b60408051918252519081900360200190f35b34801561020357600080fd5b506103b86004803603606081101561021a57600080fd5b81019060208101813564010000000081111561023557600080fd5b82018360208201111561024757600080fd5b8035906020019184600183028401116401000000008311171561026957600080fd5b91908080601f01602080910402602001604051908101604052809392919081815260200183838082843760009201919091525092959493602081019350359150506401000000008111156102bc57600080fd5b8201836020820111156102ce57600080fd5b803590602001918460018302840111640100000000831117156102f057600080fd5b91908080601f016020809104026020016040519081016040528093929190818152602001838380828437600092019190915250929594936020810193503591505064010000000081111561034357600080fd5b82018360208201111561035557600080fd5b8035906020019184600183028401116401000000008311171561037757600080fd5b91908080601f016020809104026020016040519081016040528093929190818152602001838380828437600092019190915250929550610588945050505050565b005b600160208181526000928352604092839020805481840180548651600296821615610100026000190190911695909504601f810185900485028601850190965285855290949193929091908301828280156104565780601f1061042b57610100808354040283529160200191610456565b820191906000526020600020905b81548152906001019060200180831161043957829003601f168201915b50505060028085018054604080516020601f60001961010060018716150201909416959095049283018590048502810185019091528181529596959450909250908301828280156104e85780601f106104bd576101008083540402835291602001916104e8565b820191906000526020600020905b8154815290600101906020018083116104cb57829003601f168201915b5050505060038301805460408051602060026001851615610100026000190190941693909304601f81018490048402820184019092528181529495949350908301828280156105785780601f1061054d57610100808354040283529160200191610578565b820191906000526020600020905b81548152906001019060200180831161055b57829003601f168201915b5050505050905084565b60005481565b6000805460019081018083556040805160808101825282815260208082018981528284018990526060830188905293865284815291909420845181559151805192936105dc9390850192919091019061078e565b50604082015180516105f891600284019160209091019061078e565b506060820151805161061491600384019160209091019061078e565b509050507f4a65ee4133f8e1c309b8f7634963d0a348a92f4152791a79d79538672f0f4eb960005484848460405180858152602001806020018060200180602001848103845287818151815260200191508051906020019080838360005b8381101561068a578181015183820152602001610672565b50505050905090810190601f1680156106b75780820380516001836020036101000a031916815260200191505b50848103835286518152865160209182019188019080838360005b838110156106ea5781810151838201526020016106d2565b50505050905090810190601f1680156107175780820380516001836020036101000a031916815260200191505b50848103825285518152855160209182019187019080838360005b8381101561074a578181015183820152602001610732565b50505050905090810190601f1680156107775780820380516001836020036101000a031916815260200191505b5097505050505050505060405180910390a1505050565b828054600181600116156101000203166002900490600052602060002090601f016020900481019282601f106107cf57805160ff19168380011785556107fc565b828001600101855582156107fc579182015b828111156107fc5782518255916020019190600101906107e1565b5061080892915061080c565b5090565b61082691905b808211156108085760008155600101610812565b9056fea165627a7a723058203a6646557de437bf8ae1be7758a29e7e7798133495920e55d3a79dc001c7125b0029",
  "source": "pragma solidity ^0.5.0;\n\ncontract TodoList {\n  uint public taskCount = 0;\n\n  struct Task {\n    uint id;\n    string encryptedHash;\n    string homeBank;\n    string profileName;\n  }\n\n  mapping(uint => Task) public tasks;\n\n  event TaskCreated(\n    uint id,\n    string encryptedHash,\n    string homeBank,\n    string profileName\n  );\n\n  function createTask(string memory _encryptedHash, string memory _homeBank, string memory _profileName) public {\n    taskCount ++;\n    tasks[taskCount] = Task(taskCount, _encryptedHash, _homeBank, _profileName);\n    emit TaskCreated(taskCount, _encryptedHash, _homeBank, _profileName);\n  }\n\n}\n",
  "sourcePath": "/home/pooshpal/Documents/KYC_Blockchain/KYC/contracts/TodoList.sol",
  "compiler": {
    "name": "solc",
    "version": "0.5.0+commit.1d4f565a.Emscripten.clang"
  },
  "schemaVersion": "3.0.1",
  "updatedAt": "2022-09-30T15:32:32.924Z",
  "devdoc": {
    "methods": {}
  },
  "userdoc": {
    "methods": {}
  }
}