{
  "contractName": "TodoList",
  "abi": [
    {
      "constant": true,
      "inputs": [
        {
          "name": "",
          "type": "uint256"
        }
      ],
      "name": "tasks",
      "outputs": [
        {
          "name": "id",
          "type": "uint256"
        },
        {
          "name": "encryptedHash",
          "type": "string"
        },
        {
          "name": "homeBank",
          "type": "string"
        },
        {
          "name": "profileName",
          "type": "string"
        }
      ],
      "payable": false,
      "stateMutability": "view",
      "type": "function",
      "signature": "0x8d977672"
    },
    {
      "constant": true,
      "inputs": [],
      "name": "taskCount",
      "outputs": [
        {
          "name": "",
          "type": "uint256"
        }
      ],
      "payable": false,
      "stateMutability": "view",
      "type": "function",
      "signature": "0xb6cb58a5"
    },
    {
      "anonymous": false,
      "inputs": [
        {
          "indexed": false,
          "name": "id",
          "type": "uint256"
        },
        {
          "indexed": false,
          "name": "encryptedHash",
          "type": "string"
        },
        {
          "indexed": false,
          "name": "homeBank",
          "type": "string"
        },
        {
          "indexed": false,
          "name": "profileName",
          "type": "string"
        }
      ],
      "name": "TaskCreated",
      "type": "event",
      "signature": "0x4a65ee4133f8e1c309b8f7634963d0a348a92f4152791a79d79538672f0f4eb9"
    },
    {
      "constant": false,
      "inputs": [],
      "name": "getTaskCount",
      "outputs": [
        {
          "name": "",
          "type": "int256"
        }
      ],
      "payable": false,
      "stateMutability": "nonpayable",
      "type": "function",
      "signature": "0xc17a340e"
    },
    {
      "constant": false,
      "inputs": [
        {
          "name": "_encryptedHash",
          "type": "string"
        },
        {
          "name": "_homeBank",
          "type": "string"
        },
        {
          "name": "_profileName",
          "type": "string"
        }
      ],
      "name": "createTask",
      "outputs": [],
      "payable": false,
      "stateMutability": "nonpayable",
      "type": "function",
      "signature": "0xd2344f0a"
    }
  ],
  "bytecode": "0x60806040526000805534801561001457600080fd5b50610879806100246000396000f3fe6080604052600436106100615763ffffffff7c01000000000000000000000000000000000000000000000000000000006000350416638d9776728114610066578063b6cb58a5146101db578063c17a340e14610202578063d2344f0a14610217575b600080fd5b34801561007257600080fd5b506100906004803603602081101561008957600080fd5b50356103da565b60405180858152602001806020018060200180602001848103845287818151815260200191508051906020019080838360005b838110156100db5781810151838201526020016100c3565b50505050905090810190601f1680156101085780820380516001836020036101000a031916815260200191505b50848103835286518152865160209182019188019080838360005b8381101561013b578181015183820152602001610123565b50505050905090810190601f1680156101685780820380516001836020036101000a031916815260200191505b50848103825285518152855160209182019187019080838360005b8381101561019b578181015183820152602001610183565b50505050905090810190601f1680156101c85780820380516001836020036101000a031916815260200191505b5097505050505050505060405180910390f35b3480156101e757600080fd5b506101f06105a2565b60408051918252519081900360200190f35b34801561020e57600080fd5b506101f06105a8565b34801561022357600080fd5b506103d86004803603606081101561023a57600080fd5b81019060208101813564010000000081111561025557600080fd5b82018360208201111561026757600080fd5b8035906020019184600183028401116401000000008311171561028957600080fd5b91908080601f01602080910402602001604051908101604052809392919081815260200183838082843760009201919091525092959493602081019350359150506401000000008111156102dc57600080fd5b8201836020820111156102ee57600080fd5b8035906020019184600183028401116401000000008311171561031057600080fd5b91908080601f016020809104026020016040519081016040528093929190818152602001838380828437600092019190915250929594936020810193503591505064010000000081111561036357600080fd5b82018360208201111561037557600080fd5b8035906020019184600183028401116401000000008311171561039757600080fd5b91908080601f0160208091040260200160405190810160405280939291908181526020018383808284376000920191909152509295506105af945050505050565b005b600160208181526000928352604092839020805481840180548651600296821615610100026000190190911695909504601f810185900485028601850190965285855290949193929091908301828280156104765780601f1061044b57610100808354040283529160200191610476565b820191906000526020600020905b81548152906001019060200180831161045957829003601f168201915b50505060028085018054604080516020601f60001961010060018716150201909416959095049283018590048502810185019091528181529596959450909250908301828280156105085780601f106104dd57610100808354040283529160200191610508565b820191906000526020600020905b8154815290600101906020018083116104eb57829003601f168201915b5050505060038301805460408051602060026001851615610100026000190190941693909304601f81018490048402820184019092528181529495949350908301828280156105985780601f1061056d57610100808354040283529160200191610598565b820191906000526020600020905b81548152906001019060200180831161057b57829003601f168201915b5050505050905084565b60005481565b6000545b90565b600080546001908101808355604080516080810182528281526020808201898152828401899052606083018890529386528481529190942084518155915180519293610603939085019291909101906107b5565b506040820151805161061f9160028401916020909101906107b5565b506060820151805161063b9160038401916020909101906107b5565b509050507f4a65ee4133f8e1c309b8f7634963d0a348a92f4152791a79d79538672f0f4eb960005484848460405180858152602001806020018060200180602001848103845287818151815260200191508051906020019080838360005b838110156106b1578181015183820152602001610699565b50505050905090810190601f1680156106de5780820380516001836020036101000a031916815260200191505b50848103835286518152865160209182019188019080838360005b838110156107115781810151838201526020016106f9565b50505050905090810190601f16801561073e5780820380516001836020036101000a031916815260200191505b50848103825285518152855160209182019187019080838360005b83811015610771578181015183820152602001610759565b50505050905090810190601f16801561079e5780820380516001836020036101000a031916815260200191505b5097505050505050505060405180910390a1505050565b828054600181600116156101000203166002900490600052602060002090601f016020900481019282601f106107f657805160ff1916838001178555610823565b82800160010185558215610823579182015b82811115610823578251825591602001919060010190610808565b5061082f929150610833565b5090565b6105ac91905b8082111561082f576000815560010161083956fea165627a7a72305820cc97aa981648e32d0851d0f55a791a1a3b03b18f21a5c7d5201cbc9e05b878100029",
  "source": "pragma solidity ^0.5.0;\n\ncontract TodoList {\n  uint public taskCount = 0;\n\n  struct Task {\n    uint id;\n    string encryptedHash;\n    string homeBank;\n    string profileName;\n  \n  }\n\n  mapping(uint => Task) public tasks;\n\n  event TaskCreated(\n    uint id,\n    string encryptedHash,\n    string homeBank,\n    string profileName\n    \n  );\n  function getTaskCount() public returns (int){\n    return int(taskCount);\n    \n  }\n\n  function createTask(string memory _encryptedHash, string memory _homeBank, string memory _profileName) public {\n    taskCount ++;\n    tasks[taskCount] = Task(taskCount, _encryptedHash, _homeBank, _profileName);\n    emit TaskCreated(taskCount, _encryptedHash, _homeBank, _profileName);\n  }\n\n}\n",
  "sourcePath": "/home/pooshpal/Documents/KYC_Blockchain/KYC/contracts/TodoList.sol",
  "compiler": {
    "name": "solc",
    "version": "0.5.0+commit.1d4f565a.Emscripten.clang"
  },
  "schemaVersion": "3.0.1",
  "updatedAt": "2022-10-02T05:42:41.342Z",
  "devdoc": {
    "methods": {}
  },
  "userdoc": {
    "methods": {}
  }
}